:1000000003308A00552B0000FF00030E8301A1007E
:100010000A08A0008A010408A2007708A300780853
:10002000A4007908A5007A08A600831383120B1E8A
:100030001B288B1832288C308400801C21288C18B7
:100040003528220884002308F7002408F800250832
:10005000F9002608FA0020088A00210E8300FF0E0E
:100060007F0E09008A110A1240288A110A129D285F
:100070000A108A100A11820728340C34013406341D
:100080008B10061C9928270B6D28AB08031D5228DE
:10009000AA08031D5228A908031D52282808023C5B
:1000A00003186D28A7010B08F7008B1303178D01A8
:1000B0008C0183168C130C1555308D00AA308D00E1
:1000C0008C148C1861280C117708831203138B048D
:1000D000AB01AA01A901A8019928A708031D992825
:1000E000AF08031D7D28AE08031D7D28AD08031D44
:1000F0007D282C08043C03189928AF01AE01AD01FE
:10010000AC010130A7000B08F7008B1303178D011A
:1001100001308C0083168C130C1555308D00AA30DD
:100120008D008C148C1892280C11770883120313FD
:100130008B048B108A110A1221288C103508330287
:10014000031CAC28031DA828320834020318AC286D
:10015000B40A0319B50AAE28B501B4013508310255
:10016000031CBA28031DB82834083002031CBA281F
:100170008614BB2886108C108A110A1221288C271D
:10018000D427CE274D10CD27C422000053344F343E
:100190004C343D3425344C3475342034533441349C
:1001A00047343D3425344C3475342034A034A034E5
:1001B0000034203420344534523452344F345234D5
:1001C000A034A03400342034203445345234523426
:1001D0004F345234A034A03400348C264127D52229
:1001E0004C10CD27C42A0001D322522BCF29D42072
:1001F000D422A01EA012CC3A000048308400831301
:100200000008031910290630F800F701F70B06293A
:10021000F80B05297B30F700F70B0C29800B03291D
:1002200008004F0EF039F7000F30080577048800FA
:10023000000008140230F700F70B1C291F290000EA
:10024000081008000808F700080E0F39F800080029
:100250008316081088100811831288100F30831637
:100260000805F03888008312081500000814000003
:1002700022217808CF000810000008143F294029E7
:10028000000022217808CE0008100F3083160805E0
:10029000880083124F0EF700F030F70577084E0400
:1002A000F8007808CE00CE1B2E294C1C88104C1864
:1002B000881400000811000008104D0ECE000F3009
:1002C000CE054E08CF0011214D080F39CE00CF00CA
:1002D000112108000F3083160805880008108810C7
:1002E000081183128810081108100F30C800FD2073
:1002F0000130BE003E08033C031C86290330CF00BA
:1003000011210530C800FD20BE0A7A290230CF0035
:1003100011210530C800FD20BE013E08033C031C2E
:100320009A293E083820BF00CC013F08CD00282183
:10033000BE0A8D298A110A12D12B490BA029A329A3
:100340004030CA00A429CA0101304802CA074A083D
:100350008038CB00CC014B08CD002821080047088D
:10036000073A0319BD290B3A0319C229063A0319A2
:10037000CA29023A0319D029D5290130C800C90079
:100380009D21DA29CC010130CD0028210230C8009E
:10039000FD20DA290130C8000230C9009D21DA2988
:1003A000CC011030CD002821DA290130CC004708DB
:1003B000CD00282108000B08BE008B1383160317FD
:1003C0008C170C140000000083120C087F390319ED
:1003D000222A0313BF0003170D080313C0000317DD
:1003E0000F080313C1003F08C700AF2140080317DF
:1003F0008D000313410803178F0083168C170C140C
:100400000000000083120C0D0E0D7F390319222A03
:100410000313BF0003170D080313C00003170F08D1
:100420000313C1003F08C700AF21400803178D0028
:100430000313410803178F008D0A03198F0A031352
:10044000DE2903170313BE1B8B170800831603173F
:100450008C170C140000000083120D080313BF005A
:1004600003170F080313C00003170C080313C7007A
:10047000AF213F0803178D000313400803178F00B7
:100480008D0A03198F0A0313BE0B262A0800C60122
:100490000408C5004610831B46143F0EF038C10007
:1004A000C107E23EC200323EC4003F080F39C20716
:1004B000C207C407E93EC300C307C3073E0E0F3996
:1004C000C307C407C30DC40DC409C40D3E080F39CA
:1004D000C407C10D0730C0000A30C407C303031CA2
:1004E0006D2AC307C203031C712AC207C103031C80
:1004F000752AC107C003031C792A40308400831386
:100500000730450545138407443004020319451795
:100510000008F700031D942A451B942A451AA62AB1
:10052000C519942A2030972AC51545123030F7078F
:10053000BF010408BE003F10831B3F147708C700AB
:10054000AF213E08840083133F188317840A451F98
:10055000842A08003F0841068039C300BF1FB52A1E
:10056000BE09BF09BE0A0319BF0AC11FBC2AC009C0
:10057000C109C00A0319C10A1030C200F701FA010B
:10058000BF0CBE0C031CCA2A4008F7070318FA0A5E
:100590004108FA07FA0CF70CF90CF80CC20BC02A48
:1005A000C31FD72AF809F909F80A0319F90A8A11A9
:1005B0000A128C2C831603178C170C1400000000F1
:1005C00083128C080319FD2A0D080313BE000317BC
:1005D0000F080313BF0003170C080313C700AF2154
:1005E0003E0803178D0003133F0803178F008D0A81
:1005F00003198F0A0313DA2A0317031308000B08E1
:10060000BF008B13831603178C170C140000000017
:100610000318312B83120C087F390313C000031712
:100620000D080313C10003170F080313C20040088D
:10063000C700AF21410803178D00031342080317B9
:100640008F0083168C170C14000000008312031314
:10065000BE0B2B2B2E2B83160317312B502B8316FF
:10066000031783120C0D0E0D7F390313C0000317FF
:100670000D080313C10003170F080313C20040083D
:10068000C700AF21410803178D0003134208031769
:100690008F008D0A03198F0A03100313BE0B022B60
:1006A000BF1B8B178A110A12DB2DAB01AA01A9010E
:1006B0000230A800AF01AE01AD01AC01B1014B3079
:1006C000B0000330B300E830B200B501B40101302E
:1006D000B7002C30B60083161F149F141F159F11EE
:1006E00007309C0083131F308305013083120317EA
:1006F0008D0083168C130C1483120C080313B7019E
:10070000B6000130C800FD203608B700B60102303F
:1007100003178D0083168C130C1483120C0803131B
:10072000B6040130C800FD20033003178D00831686
:100730008C130C1483120C080313B101B0000317BF
:100740008D0183168C130C1483120C08013C0319C1
:10075000C82B8D0183168C130C1483120C080319FB
:10076000C82B03130B08F7008B1303178D018C01A3
:1007700083168C130C1555308D00AA308D008C1407
:100780008C18C02B0C117708831203138B040317EA
:100790008D0183168C130C1483120C080313A7000D
:1007A0006A2944309F00803083169F008316880199
:1007B000FD3086008312860188018B018B170B1791
:1007C0008316011783128B100B16043092008316C8
:1007D0008C018C1463309200831291010F30F7006A
:1007E00081018130840083130008F03907388000CC
:1007F00064000008F739F719F039770480000530F4
:10080000C800FD20270B902D64009F112030F700B9
:10081000F70B082C0B2C00001F151F141F190E2C92
:10082000B9011E08B8003808B900B80183161E08BF
:100830008312B804A630F700F70B1C2C00009F159C
:100840002030F700F70B222C252C00001F151F1459
:100850001F19282CBB011E08BA003A08BB00BA01B8
:1008600083161E088312BA04A630F700F70B362C45
:1008700000000130C800C9009D21BF3003178D0062
:1008800000308F000313DB210130C8000230C900A3
:100890009D21C63003178D0000308F0004300313F4
:1008A000BE002622103084003908BF003808BE0080
:1008B0004722CD3003178D0000308F000530031321
:1008C000BE002622103084003B08BF003A08BE005C
:1008D00047222030C700AF21A030C700AF21A03091
:1008E000C700AF210130C800FD203A083802F700E8
:1008F0003908FA003B08031C3B0FFA027708BC00DA
:100900007A08BD00BD1FC02C3D08BF003C08BE00DA
:10091000FF30C100C000AA2A7908BD007808BC00D9
:10092000BD1B982CBD08031D992C3C08C73C03181F
:10093000BF2CBD1BB22CBD08031DA22C3C08C73C1C
:100940000318B22CBD1BAE2C3D08043C031CB22C7A
:10095000031DAE2C3C08003C031CB22CB60A031944
:10096000B70ABF2C0C30C700AF21D93003178D0058
:1009700000308F000313DA220130C800FD20F22C72
:10098000BD1BF22CBD1BCA2CBD08031DCB2C3C0883
:10099000C73C0318F22CBD1BE52CBD08031DD42C4D
:1009A0003C08C73C0318E52CBD1BE02C3D08043C6B
:1009B000031CE52C031DE02C3C08003C031CE52C2B
:1009C00036080319B703B603F22C0C30C700AF2169
:1009D000E33003178D0000308F000313DA2201305B
:1009E000C800FD203708003C03180A2DFF3A031DFC
:1009F000FD2C3608F33C03180A2D0130B700F43003
:100A0000B600370CB100360CB000B10CB00C3F3062
:100A1000B105252DB708031D1D2D3608643C031CA8
:100A20001D2DB7016430B600370CB100360CB00094
:100A3000B10CB00C3F30B105252D370CB100360C90
:100A4000B000B10CB00C3F30B1050130A80703185D
:100A5000A90A0319AA0A0319AB0A280F3A2D290F6C
:100A60003A2D2A0F3A2D2B0F3A2DAB01AA01A901DD
:100A70000330A8003708BE000B08F7008B130130C5
:100A800003178D000313370803178C0083168C138C
:100A90000C1555308D00AA308D008C148C184E2DFD
:100AA0000C117708831203138B040230C800FD2059
:100AB0003608BE000B08F7008B13023003178D00B9
:100AC0000313360803178C0083168C130C1555304E
:100AD0008D00AA308D008C148C186C2D0C117708A9
:100AE000831203138B040230C800FD200B08F700AB
:100AF0008B13033003178D000313300803178C008A
:100B000083168C130C1555308D00AA308D008C1473
:100B10008C18882D0C117708831203138B04022C78
:100B2000A708031D4D2E6400061DA92DB60A031942
:100B3000B70A3708003C0318A82DFF3A031DA42D5F
:100B40003608F33C0318A82D0130B700F430B60086
:100B5000B92D861DB92D36080319B703B603B7089A
:100B6000031DB92D3608643C031CB92DB701643050
:100B7000B600370CB100360CB000B10CB00C3F30F1
:100B8000B1050130C800C9009D21ED3003178D006B
:100B900000308F000313DB210130C8000230C90090
:100BA0009D21F43003178D0000308F0003100D30AD
:100BB0000313BE00FF2A103084003708BF00360838
:100BC000BE0047220130AC070318AD0A0319AE0A74
:100BD0000319AF0A2C0FF72D2D0FF72D2E0FF72D20
:100BE0002F0FF72DAF01AE01AD010230AC00370879
:100BF000BE000B08F7008B13013003178D000313A1
:100C0000370803178C0083168C130C1555308D0094
:100C1000AA308D008C148C180B2E0C1177088312BF
:100C200003138B040130C800FD203608BE000B08FA
:100C3000F7008B13023003178D00031336080317D8
:100C40008C0083168C130C1555308D00AA308D0046
:100C50008C148C18292E0C117708831203138B0423
:100C60000130C800FD200B08F7008B130330031779
:100C70008D000313300803178C0083168C130C159A
:100C800055308D00AA308D008C148C18452E0C1117
:0E0C90007708831203138B04902D022C63004F
:02400E00763FFB
:00000001FF
;PIC16F877A
;CRC=89E7  CREATED="03-Oca-24 23:14"
